:100000000C9446000C9465000C9465000C946500FB
:100010000C9465000C9465000C9465000C946500CC
:100020000C9465000C9465000C9465000C946500BC
:100030000C9465000C94DE000C9465000C94650033
:100040000C9465000C9465000C9465000C9465009C
:100050000C9465000C9465000C9465000C9465008C
:100060000C9465000C9465000C9465000C9465007C
:100070000C9465000C9465000C9465000C9465006C
:100080000C9465000C9465000C94650011241FBE4F
:10009000CFEFD0E4DEBFCDBF11E0A0E0B1E0E0E5FE
:1000A000FAE000E00BBF02C007900D92A233B10747
:1000B000D9F721E0A2E3B1E001C01D92AF33B2074E
:1000C000E1F70E9451030C9426050C940000CF9395
:1000D000DF9300D00F92CDB7DEB789837B836A832D
:1000E00089818A3031F48A819B81BC018DE00E9434
:1000F000670080EC90E0FC018081882F90E08072A6
:100100009927892BB1F386EC90E02981FC012083AB
:1001100080E090E00F900F900F90DF91CF910895C5
:10012000CF93DF93CDB7DEB781E890E02BE0FC0101
:10013000208388E890E02DE730E0FC0131832083C4
:100140008FE690E022E0FC01208384E890E0FC014F
:100150001182108280910E0190910F01A0911001E7
:10016000B09111018093330190933401A093350134
:10017000B09336018FE590E0FC0120818FE590E09F
:100180002068FC0120830000DF91CF910895CF9378
:10019000DF93CDB7DEB781E890E0FC01108200006C
:1001A000DF91CF910895CF93DF93CDB7DEB781E094
:1001B000809332010000DF91CF9108951F920F923A
:1001C0000FB60F9211240BB60F922F933F934F93BC
:1001D0005F936F937F938F939F93AF93BF93EF93AF
:1001E000FF93CF93DF93CDB7DEB78091330190912A
:1001F0003401A0913501B09136010197A109B109EF
:100200008093330190933401A0933501B09336016C
:100210008091330190913401A0913501B091360164
:10022000892B8A2B8B2B91F40E94D30080910E0195
:1002300090910F01A0911001B091110180933301B1
:1002400090933401A0933501B09336010000DF9103
:10025000CF91FF91EF91BF91AF919F918F917F913E
:100260006F915F914F913F912F910F900BBE0F9027
:100270000FBE0F901F901895CF93DF9300D000D042
:10028000CDB7DEB769837A838B839C8389819A811A
:10029000AB81BC8180930E0190930F01A09310015C
:1002A000B093110180910E0190910F01A091100166
:1002B000B09111018093330190933401A0933501E3
:1002C000B093360100000F900F900F900F90DF91C8
:1002D000CF910895CF93DF93CDB7DEB764970FB674
:1002E000F894DEBF0FBECDBF69837A838B839C8376
:1002F0008091390190913A01A0913B01B0913C016C
:100300009C01AD0169817A818B819C810E9492035D
:10031000882309F491C020E030E0A90169817A8145
:100320008B819C810E949203882351F481E990E0A3
:10033000DC012C9181E990E02870FC01208309C048
:1003400081E990E0DC012C9181E990E02360FC01DF
:10035000208328E539E344E75FE369817A818B8173
:100360009C810E94920388234CF488E990E02FEF4F
:100370003FEFDC0111963C932E934DC020E034E218
:1003800044EF56E469817A818B819C810E94B40498
:10039000181634F488E990E0FC01118210823BC009
:1003A00020E030E040E053E469817A818B819C81D8
:1003B0000E94B90469877A878B879C8789859A858B
:1003C000AB85BC859C01AD0160E074E284EF9AE4EA
:1003D0000E9497036D877E878F87988B8D859E857A
:1003E000AF85B8898D839E83AF83B8876D817E8109
:1003F0008F8198850E940904698B7A8B8B8B9C8BEB
:1004000089899A899C012150310988E990E0DC01B1
:1004100011963C932E9384E990E0FC0111821082A6
:1004200089819A81AB81BC818093390190933A0193
:10043000A0933B01B0933C01000064960FB6F89482
:10044000DEBF0FBECDBFDF91CF910895CF93DF9375
:10045000CDB7DEB780E990E020E4FC01208381E99C
:1004600090E02BE0FC01208360E070E0CB010E9473
:100470006A010000DF91CF910895CF93DF93CDB74C
:10048000DEB780E990E0FC01108281E990E0FC0198
:1004900010820000DF91CF910895CF93DF9300D0B9
:1004A00000D0CDB7DEB780913D0190913E01833001
:1004B000910509F4A3C08430910508F0B7C08230DB
:1004C000910509F483C08330910508F0AFC000970F
:1004D00021F0019709F462C0A9C080E290E0FC011C
:1004E0008081882F90E0809590958770992701975B
:1004F000B1F481E090E090933E0180933D018091C2
:100500003701882F90E021E0892B09F420E081E079
:100510008227882F90E081708093370189C080E224
:1005200090E0FC018081882F90E080959095877005
:100530009927029789F482E090E090933E0180939E
:100540003D0180913801873008F072C080913801F8
:100550008F5F809338016CC080E290E0FC01808165
:10056000882F90E08095909587709927049789F45B
:1005700083E090E090933E0180933D0180913801AB
:10058000882309F455C08091380181508093380147
:100590004FC010923E0110923D014AC080E290E0AF
:1005A000FC018081882F90E0809590958770992735
:1005B000019739F481E090E090933E0180933D01F2
:1005C00038C010923E0110923D0133C080E290E0AD
:1005D000FC018081882F90E0809590958770992705
:1005E000029739F482E090E090933E0180933D01C0
:1005F00020C010923E0110923D011BC080E290E0AD
:10060000FC018081882F90E08095909587709927D4
:10061000049739F483E090E090933E0180933D018C
:1006200008C010923E0110923D0103C0000001C0BD
:10063000000080913D0190913E01049720F580914A
:1006400037018823D1F080913801882F90E0880FFE
:10065000991F880F991F8E5E9E4FFC01208131816A
:100660004281538129833A834B835C8369817A81F8
:100670008B819C810E946A010CC060E070E0CB011C
:100680000E946A0106C060E070E0CB010E946A012E
:10069000000000000F900F900F900F90DF91CF910E
:1006A0000895CF93DF93CDB7DEB781E290E0FC01F0
:1006B000108282E290E02FEFFC01208384E290E040
:1006C0002FEFFC01208385E290E0FC01108287E29D
:1006D00090E02FEFFC01208388E290E0FC01108283
:1006E0008AE290E02FEFFC0120838BE290E0FC0196
:1006F000108262E370E080E090E00E943C010E9482
:1007000090000E94260285E290E021E0FC01208317
:100710000000809132018823E1F3109232010E949F
:100720004D02F6CF0E943F0408F481E008950E9434
:10073000AB030C947A040E94730458F00E946C047A
:1007400040F029F45F3F29F00C94630451110C949C
:10075000AE040C9469040E948B0468F39923B1F3EE
:10076000552391F3951B550BBB27AA2762177307D7
:10077000840738F09F5F5F4F220F331F441FAA1F6B
:10078000A9F335D00E2E3AF0E0E832D09150504027
:10079000E695001CCAF72BD0FE2F29D0660F771FD5
:1007A000881FBB1F261737074807AB07B0E809F0BB
:1007B000BB0B802DBF01FF2793585F4F3AF09E3F40
:1007C000510578F00C9463040C94AE045F3FE4F39D
:1007D000983ED4F3869577956795B795F7959F5F83
:1007E000C9F7880F911D9695879597F90895E1E0CF
:1007F000660F771F881FBB1F621773078407BA072E
:1008000020F0621B730B840BBA0BEE1F88F7E09588
:1008100008950E9410046894B1110C94AE040895D8
:100820000E94930488F09F5798F0B92F9927B751E9
:10083000B0F0E1F0660F771F881F991F1AF0BA9584
:10084000C9F714C0B13091F00E94AD04B1E0089531
:100850000C94AD04672F782F8827B85F39F0B93F23
:10086000CCF3869577956795B395D9F73EF4909537
:100870008095709561957F4F8F4F9F4F0895990F89
:100880000008550FAA0BE0E8FEEF16161706E8075A
:10089000F907C0F012161306E407F50798F0621B7B
:1008A000730B840B950B39F40A2661F0232B242B50
:1008B000252B21F408950A2609F4A140A6958FEF6F
:1008C000811D811D089597F99F6780E870E060E0C1
:1008D00008959FEF80EC089500240A9416161706D9
:1008E00018060906089500240A9412161306140621
:1008F00005060895092E0394000C11F4882352F084
:10090000BB0F40F4BF2B11F460FF04C06F5F7F4F3B
:100910008F4F9F4F089557FD9058440F551F59F022
:100920005F3F71F04795880F97FB991F61F09F3FDC
:1009300079F087950895121613061406551FF2CF05
:100940004695F1DF08C0161617061806991FF1CF55
:1009500086957105610508940895E894BB2766277C
:100960007727CB0197F908950E943F0408F48FEF91
:1009700008950E94CC040C947A040E946C0438F010
:100980000E94730420F0952311F00C9463040C94DE
:10099000690411240C94AE040E948B0470F3959F9B
:1009A000C1F3950F50E0551F629FF001729FBB2766
:1009B000F00DB11D639FAA27F00DB11DAA1F649F02
:1009C0006627B00DA11D661F829F2227B00DA11DB5
:1009D000621F739FB00DA11D621F839FA00D611D3B
:1009E000221F749F3327A00D611D231F849F600D5C
:1009F000211D822F762F6A2F11249F5750409AF085
:100A0000F1F088234AF0EE0FFF1FBB1F661F771F10
:100A1000881F91505040A9F79E3F510580F00C94DB
:100A200063040C94AE045F3FE4F3983ED4F38695E0
:100A300077956795B795F795E7959F5FC1F7FE2B7B
:100A4000880F911D9695879597F90895F894FFCF93
:100A5000000000020000000067000000000001002C
:100A60000000A4D082437BD49243A4D0A443719DC0
:100A7000AE430000C4430000DC43A4F0F64300D0C2
:020A800002442E
:00000001FF
