:100000000C9446000C9465000C9465000C946500FB
:100010000C9465000C9465000C9465000C946500CC
:100020000C9465000C9465000C9465000C946500BC
:100030000C9465000C94DE000C9465000C94650033
:100040000C9465000C9465000C9465000C9465009C
:100050000C9465000C9465000C9465000C9465008C
:100060000C9465000C9465000C9465000C9465007C
:100070000C9465000C9465000C9465000C9465006C
:100080000C9465000C9465000C94650011241FBE4F
:10009000CFEFD0E4DEBFCDBF11E0A0E0B1E0E8E8F3
:1000A000FAE000E00BBF02C007900D92AC37B10739
:1000B000D9F721E0ACE7B1E001C01D92A938B20741
:1000C000E1F70E9424030C9442050C940000CF93A6
:1000D000DF9300D00F92CDB7DEB789837B836A832D
:1000E00089818A3031F48A819B81BC018DE00E9434
:1000F000670080EC90E0FC018081882F90E08072A6
:100100009927892BB1F386EC90E02981FC012083AB
:1001100080E090E00F900F900F90DF91CF910895C5
:10012000CF93DF93CDB7DEB781E890E02BE0FC0101
:10013000208388E890E02DE730E0FC0131832083C4
:100140008FE690E022E0FC01208384E890E0FC014F
:100150001182108280910E0190910F01A0911001E7
:10016000B091110180937D0190937E01A0937F0156
:10017000B09380018FE590E0FC0120818FE590E055
:100180002068FC0120830000DF91CF910895CF9378
:10019000DF93CDB7DEB781E890E0FC01108200006C
:1001A000DF91CF910895CF93DF93CDB7DEB781E094
:1001B00080937C010000DF91CF9108951F920F92F0
:1001C0000FB60F9211240BB60F922F933F934F93BC
:1001D0005F936F937F938F939F93AF93BF93EF93AF
:1001E000FF93CF93DF93CDB7DEB780917D019091E0
:1001F0007E01A0917F01B09180010197A109B10911
:1002000080937D0190937E01A0937F01B093800144
:1002100080917D0190917E01A0917F01B09180013C
:10022000892B8A2B8B2B91F40E94D30080910E0195
:1002300090910F01A0911001B091110180937D0167
:1002400090937E01A0937F01B09380010000DF9125
:10025000CF91FF91EF91BF91AF919F918F917F913E
:100260006F915F914F913F912F910F900BBE0F9027
:100270000FBE0F901F901895CF93DF9300D000D042
:10028000CDB7DEB769837A838B839C8389819A811A
:10029000AB81BC8180930E0190930F01A09310015C
:1002A000B093110180910E0190910F01A091100166
:1002B000B091110180937D0190937E01A0937F0105
:1002C000B093800100000F900F900F900F90DF917E
:1002D000CF910895CF93DF93CDB7DEB764970FB674
:1002E000F894DEBF0FBECDBF69837A838B839C8376
:1002F0008091830190918401A0918501B091860144
:100300009C01AD0169817A818B819C810E9471037E
:10031000882309F491C020E030E0A90169817A8145
:100320008B819C810E947103882351F481E990E0C4
:10033000DC012C9181E990E02870FC01208309C048
:1003400081E990E0DC012C9181E990E02360FC01DF
:10035000208328E539E344E75FE369817A818B8173
:100360009C810E94710388234CF488E990E02FEF70
:100370003FEFDC0111963C932E934DC020E034E218
:1003800044EF56E469817A818B819C810E94D0047C
:10039000181634F488E990E0FC01118210823BC009
:1003A00020E030E040E053E469817A818B819C81D8
:1003B0000E94D50469877A878B879C8789859A856F
:1003C000AB85BC859C01AD0160E074E284EF9AE4EA
:1003D0000E9476036D877E878F87988B8D859E859B
:1003E000AF85B8898D839E83AF83B8876D817E8109
:1003F0008F8198850E94E803698B7A8B8B8B9C8B0D
:1004000089899A899C012150310988E990E0DC01B1
:1004100011963C932E9384E990E0FC0111821082A6
:1004200089819A81AB81BC818093830190938401FF
:10043000A0938501B0938601000064960FB6F894EE
:10044000DEBF0FBECDBFDF91CF910895CF93DF9375
:10045000CDB7DEB780E990E020E4FC01208381E99C
:1004600090E02BE0FC01208360E070E0CB010E9473
:100470006A010000DF91CF910895CF93DF93CDB74C
:10048000DEB780E990E0FC01108281E990E0FC0198
:1004900010820000DF91CF910895CF93DF93CDB705
:1004A000DEB72C970FB6F894DEBF0FBECDBF80919C
:1004B0008701909188018230910599F183309105EF
:1004C00008F044C0009719F00197C9F03FC080E2DE
:1004D00090E0FC018081882F90E080959095877056
:1004E0009927019739F481E090E0909388018093F7
:1004F00087012DC0109288011092870128C0809139
:1005000081018C3039F482E090E0909388018093EF
:1005100087011DC081E090E090938801809387015E
:1005200016C080E290E0FC018081882F90E081700D
:100530009927892B39F482E090E090938801809389
:10054000870104C0109288011092870100008091F9
:10055000870190918801009719F0019759F064C0C4
:1005600060E070E0CB010E946A011092810110925C
:10057000820160C080918201882F90E09C01990FD8
:10058000440B550B29873A874B875C8769857A85A9
:100590008B859C850E94200469837A838B839C834E
:1005A00080918101882F90E0880F991F880F991FF3
:1005B000895B9E4FFC0180819181A281B3819C0166
:1005C000AD0169817A818B819C810E9471038823AE
:1005D00034F4809182018F5F809382010BC08091FF
:1005E00081018C3028F4809181018F5F809381019B
:1005F0001092820180918101882F90E0880F991FCD
:10060000880F991F8D5E9E4FFC01208131814281B0
:1006100053812D833E834F8358876D817E818F81E7
:1006200098850E946A0106C060E070E0CB010E94DC
:100630006A01000000002C960FB6F894DEBF0FBED2
:10064000CDBFDF91CF910895CF93DF9300D000D03D
:10065000CDB7DEB781E290E0FC01108282E290E04B
:100660002FEFFC01208384E290E02FEFFC01208338
:1006700085E290E0FC01108287E290E02FEFFC0120
:10068000208388E290E0FC0110828AE290E02FEF64
:10069000FC0120838BE290E0FC011082809112012A
:1006A000282F30E040E050E029833A834B835C837D
:1006B00069817A818B819C810E943C010E9490001B
:1006C0000E94260260E070E0CB010E946A010000F7
:1006D00080917C018823E1F310927C010E944D02FD
:1006E000F6CF0E945B0408F481E008950E948A031B
:1006F0000C9496040E948F0458F00E94880440F0E5
:1007000029F45F3F29F00C947F0451110C94CA0422
:100710000C9485040E94A70468F39923B1F3552330
:1007200091F3951B550BBB27AA2762177307840704
:1007300038F09F5F5F4F220F331F441FAA1FA9F39A
:1007400035D00E2E3AF0E0E832D091505040E69588
:10075000001CCAF72BD0FE2F29D0660F771F881FE9
:10076000BB1F261737074807AB07B0E809F0BB0BDC
:10077000802DBF01FF2793585F4F3AF09E3F5105F0
:1007800078F00C947F040C94CA045F3FE4F3983E25
:10079000D4F3869577956795B795F7959F5FC9F7D9
:1007A000880F911D9695879597F90895E1E0660F5A
:1007B000771F881FBB1F621773078407BA0720F0D3
:1007C000621B730B840BBA0BEE1F88F7E09508953C
:1007D0000E94EF036894B1110C94CA0408950E941A
:1007E000AF0488F09F5798F0B92F9927B751B0F010
:1007F000E1F0660F771F881F991F1AF0BA95C9F7A5
:1008000014C0B13091F00E94C904B1E008950C9475
:10081000C904672F782F8827B85F39F0B93FCCF328
:10082000869577956795B395D9F73EF49095809521
:10083000709561957F4F8F4F9F4F0895E89409C041
:1008400097FB3EF490958095709561957F4F8F4F03
:100850009F4F9923A9F0F92F96E9BB279395F69519
:10086000879577956795B795F111F8CFFAF4BB0F97
:1008700011F460FF1BC06F5F7F4F8F4F9F4F16C0FB
:10088000882311F096E911C0772321F09EE8872F85
:10089000762F05C0662371F096E8862F70E060E041
:1008A0002AF09A95660F771F881FDAF7880F9695BA
:1008B000879597F90895990F0008550FAA0BE0E85E
:1008C000FEEF16161706E807F907C0F01216130612
:1008D000E407F50798F0621B730B840B950B39F452
:1008E0000A2661F0232B242B252B21F408950A26B8
:1008F00009F4A140A6958FEF811D811D089597F9F8
:100900009F6780E870E060E008959FEF80EC0895B5
:1009100000240A94161617061806090608950024DE
:100920000A9412161306140605060895092E039458
:10093000000C11F4882352F0BB0F40F4BF2B11F4CC
:1009400060FF04C06F5F7F4F8F4F9F4F089557FD2B
:100950009058440F551F59F05F3F71F04795880F2D
:1009600097FB991F61F09F3F79F0879508951216C4
:1009700013061406551FF2CF4695F1DF08C0161670
:1009800017061806991FF1CF869571056105089421
:100990000895E894BB2766277727CB0197F9089538
:1009A0000E945B0408F48FEF08950E94E8040C9401
:1009B00096040E94880438F00E948F0420F095234A
:1009C00011F00C947F040C94850411240C94CA0437
:1009D0000E94A70470F3959FC1F3950F50E0551F37
:1009E000629FF001729FBB27F00DB11D639FAA2784
:1009F000F00DB11DAA1F649F6627B00DA11D661FD3
:100A0000829F2227B00DA11D621F739FB00DA11DF3
:100A1000621F839FA00D611D221F749F3327A00DAD
:100A2000611D231F849F600D211D822F762F6A2F49
:100A300011249F5750409AF0F1F088234AF0EE0FAE
:100A4000FF1FBB1F661F771F881F91505040A9F7DB
:100A50009E3F510580F00C947F040C94CA045F3FC4
:100A6000E4F3983ED4F3869577956795B795F79517
:100A7000E7959F5FC1F7FE2B880F911D969587958F
:080A800097F90895F894FFCFE7
:100A880000000002000000006700000000000100F4
:100A98000000A6719DAE4300000000719DAE4300AA
:100AA8000000000000C443719DAE43A4D0824300FF
:100AB8000000000000C443A4F079430000000000D7
:100AC80000C4430000000000008040000080400097
:100AD800004040000000400000803F0000803F00D0
:100AE80000A0400000803F000000400000A040003F
:0C0AF800000040000000400000803F00B3
:00000001FF
